{
  "_format": "hh-sol-artifact-1",
  "contractName": "OtterRewardManager",
  "sourceName": "contracts/OtterRewardManager.sol",
  "abi": [
    {
      "anonymous": false,
      "inputs": [
        {
          "indexed": false,
          "internalType": "address",
          "name": "previousAdmin",
          "type": "address"
        },
        {
          "indexed": false,
          "internalType": "address",
          "name": "newAdmin",
          "type": "address"
        }
      ],
      "name": "AdminChanged",
      "type": "event"
    },
    {
      "anonymous": false,
      "inputs": [
        {
          "indexed": true,
          "internalType": "address",
          "name": "beacon",
          "type": "address"
        }
      ],
      "name": "BeaconUpgraded",
      "type": "event"
    },
    {
      "anonymous": false,
      "inputs": [
        {
          "indexed": false,
          "internalType": "uint256",
          "name": "nextPayoutTime",
          "type": "uint256"
        }
      ],
      "name": "NextPayoutTime",
      "type": "event"
    },
    {
      "anonymous": false,
      "inputs": [
        {
          "indexed": false,
          "internalType": "address",
          "name": "account",
          "type": "address"
        }
      ],
      "name": "Paused",
      "type": "event"
    },
    {
      "anonymous": false,
      "inputs": [
        {
          "indexed": false,
          "internalType": "uint256",
          "name": "totalUsdPlus",
          "type": "uint256"
        }
      ],
      "name": "Payout",
      "type": "event"
    },
    {
      "anonymous": false,
      "inputs": [
        {
          "indexed": false,
          "internalType": "uint256",
          "name": "nextPayoutTime",
          "type": "uint256"
        },
        {
          "indexed": false,
          "internalType": "uint256",
          "name": "payoutPeriod",
          "type": "uint256"
        },
        {
          "indexed": false,
          "internalType": "uint256",
          "name": "payoutTimeRange",
          "type": "uint256"
        }
      ],
      "name": "PayoutTimesUpdated",
      "type": "event"
    },
    {
      "anonymous": false,
      "inputs": [
        {
          "indexed": false,
          "internalType": "address",
          "name": "portfolioManager",
          "type": "address"
        }
      ],
      "name": "PortfolioManagerUpdated",
      "type": "event"
    },
    {
      "anonymous": false,
      "inputs": [
        {
          "indexed": true,
          "internalType": "bytes32",
          "name": "role",
          "type": "bytes32"
        },
        {
          "indexed": true,
          "internalType": "bytes32",
          "name": "previousAdminRole",
          "type": "bytes32"
        },
        {
          "indexed": true,
          "internalType": "bytes32",
          "name": "newAdminRole",
          "type": "bytes32"
        }
      ],
      "name": "RoleAdminChanged",
      "type": "event"
    },
    {
      "anonymous": false,
      "inputs": [
        {
          "indexed": true,
          "internalType": "bytes32",
          "name": "role",
          "type": "bytes32"
        },
        {
          "indexed": true,
          "internalType": "address",
          "name": "account",
          "type": "address"
        },
        {
          "indexed": true,
          "internalType": "address",
          "name": "sender",
          "type": "address"
        }
      ],
      "name": "RoleGranted",
      "type": "event"
    },
    {
      "anonymous": false,
      "inputs": [
        {
          "indexed": true,
          "internalType": "bytes32",
          "name": "role",
          "type": "bytes32"
        },
        {
          "indexed": true,
          "internalType": "address",
          "name": "account",
          "type": "address"
        },
        {
          "indexed": true,
          "internalType": "address",
          "name": "sender",
          "type": "address"
        }
      ],
      "name": "RoleRevoked",
      "type": "event"
    },
    {
      "anonymous": false,
      "inputs": [
        {
          "indexed": false,
          "internalType": "address",
          "name": "account",
          "type": "address"
        }
      ],
      "name": "Unpaused",
      "type": "event"
    },
    {
      "anonymous": false,
      "inputs": [
        {
          "indexed": true,
          "internalType": "address",
          "name": "implementation",
          "type": "address"
        }
      ],
      "name": "Upgraded",
      "type": "event"
    },
    {
      "inputs": [],
      "name": "DEFAULT_ADMIN_ROLE",
      "outputs": [
        {
          "internalType": "bytes32",
          "name": "",
          "type": "bytes32"
        }
      ],
      "stateMutability": "view",
      "type": "function"
    },
    {
      "inputs": [],
      "name": "MANAGER_ROLE",
      "outputs": [
        {
          "internalType": "bytes32",
          "name": "",
          "type": "bytes32"
        }
      ],
      "stateMutability": "view",
      "type": "function"
    },
    {
      "inputs": [],
      "name": "clamPond",
      "outputs": [
        {
          "internalType": "contract IClamPond",
          "name": "",
          "type": "address"
        }
      ],
      "stateMutability": "view",
      "type": "function"
    },
    {
      "inputs": [
        {
          "internalType": "bytes32",
          "name": "role",
          "type": "bytes32"
        }
      ],
      "name": "getRoleAdmin",
      "outputs": [
        {
          "internalType": "bytes32",
          "name": "",
          "type": "bytes32"
        }
      ],
      "stateMutability": "view",
      "type": "function"
    },
    {
      "inputs": [
        {
          "internalType": "bytes32",
          "name": "role",
          "type": "bytes32"
        },
        {
          "internalType": "address",
          "name": "account",
          "type": "address"
        }
      ],
      "name": "grantRole",
      "outputs": [],
      "stateMutability": "nonpayable",
      "type": "function"
    },
    {
      "inputs": [
        {
          "internalType": "bytes32",
          "name": "role",
          "type": "bytes32"
        },
        {
          "internalType": "address",
          "name": "account",
          "type": "address"
        }
      ],
      "name": "hasRole",
      "outputs": [
        {
          "internalType": "bool",
          "name": "",
          "type": "bool"
        }
      ],
      "stateMutability": "view",
      "type": "function"
    },
    {
      "inputs": [
        {
          "internalType": "address",
          "name": "clamPond_",
          "type": "address"
        },
        {
          "internalType": "address",
          "name": "pearlBank_",
          "type": "address"
        },
        {
          "internalType": "address",
          "name": "portfolioManager_",
          "type": "address"
        },
        {
          "internalType": "address",
          "name": "usdc_",
          "type": "address"
        },
        {
          "internalType": "address",
          "name": "wUSDPlus_",
          "type": "address"
        },
        {
          "internalType": "address",
          "name": "usdPlusMarket_",
          "type": "address"
        },
        {
          "internalType": "uint256",
          "name": "nextPayoutTime_",
          "type": "uint256"
        }
      ],
      "name": "initialize",
      "outputs": [],
      "stateMutability": "nonpayable",
      "type": "function"
    },
    {
      "inputs": [],
      "name": "nextPayoutTime",
      "outputs": [
        {
          "internalType": "uint256",
          "name": "",
          "type": "uint256"
        }
      ],
      "stateMutability": "view",
      "type": "function"
    },
    {
      "inputs": [],
      "name": "pause",
      "outputs": [],
      "stateMutability": "nonpayable",
      "type": "function"
    },
    {
      "inputs": [],
      "name": "paused",
      "outputs": [
        {
          "internalType": "bool",
          "name": "",
          "type": "bool"
        }
      ],
      "stateMutability": "view",
      "type": "function"
    },
    {
      "inputs": [],
      "name": "payout",
      "outputs": [],
      "stateMutability": "nonpayable",
      "type": "function"
    },
    {
      "inputs": [],
      "name": "payoutPeriod",
      "outputs": [
        {
          "internalType": "uint256",
          "name": "",
          "type": "uint256"
        }
      ],
      "stateMutability": "view",
      "type": "function"
    },
    {
      "inputs": [],
      "name": "payoutTimeRange",
      "outputs": [
        {
          "internalType": "uint256",
          "name": "",
          "type": "uint256"
        }
      ],
      "stateMutability": "view",
      "type": "function"
    },
    {
      "inputs": [],
      "name": "pearlBank",
      "outputs": [
        {
          "internalType": "contract IPearlBank",
          "name": "",
          "type": "address"
        }
      ],
      "stateMutability": "view",
      "type": "function"
    },
    {
      "inputs": [],
      "name": "portfolioManager",
      "outputs": [
        {
          "internalType": "contract IPortfolioManager",
          "name": "",
          "type": "address"
        }
      ],
      "stateMutability": "view",
      "type": "function"
    },
    {
      "inputs": [],
      "name": "proxiableUUID",
      "outputs": [
        {
          "internalType": "bytes32",
          "name": "",
          "type": "bytes32"
        }
      ],
      "stateMutability": "view",
      "type": "function"
    },
    {
      "inputs": [
        {
          "internalType": "bytes32",
          "name": "role",
          "type": "bytes32"
        },
        {
          "internalType": "address",
          "name": "account",
          "type": "address"
        }
      ],
      "name": "renounceRole",
      "outputs": [],
      "stateMutability": "nonpayable",
      "type": "function"
    },
    {
      "inputs": [
        {
          "internalType": "bytes32",
          "name": "role",
          "type": "bytes32"
        },
        {
          "internalType": "address",
          "name": "account",
          "type": "address"
        }
      ],
      "name": "revokeRole",
      "outputs": [],
      "stateMutability": "nonpayable",
      "type": "function"
    },
    {
      "inputs": [
        {
          "internalType": "uint256",
          "name": "nextPayoutTime_",
          "type": "uint256"
        },
        {
          "internalType": "uint256",
          "name": "payoutPeriod_",
          "type": "uint256"
        },
        {
          "internalType": "uint256",
          "name": "payoutTimeRange_",
          "type": "uint256"
        }
      ],
      "name": "setPayoutTimes",
      "outputs": [],
      "stateMutability": "nonpayable",
      "type": "function"
    },
    {
      "inputs": [
        {
          "internalType": "address",
          "name": "portfolioManager_",
          "type": "address"
        }
      ],
      "name": "setPortfolioManager",
      "outputs": [],
      "stateMutability": "nonpayable",
      "type": "function"
    },
    {
      "inputs": [
        {
          "internalType": "bytes4",
          "name": "interfaceId",
          "type": "bytes4"
        }
      ],
      "name": "supportsInterface",
      "outputs": [
        {
          "internalType": "bool",
          "name": "",
          "type": "bool"
        }
      ],
      "stateMutability": "view",
      "type": "function"
    },
    {
      "inputs": [],
      "name": "unpause",
      "outputs": [],
      "stateMutability": "nonpayable",
      "type": "function"
    },
    {
      "inputs": [
        {
          "internalType": "address",
          "name": "newImplementation",
          "type": "address"
        }
      ],
      "name": "upgradeTo",
      "outputs": [],
      "stateMutability": "nonpayable",
      "type": "function"
    },
    {
      "inputs": [
        {
          "internalType": "address",
          "name": "newImplementation",
          "type": "address"
        },
        {
          "internalType": "bytes",
          "name": "data",
          "type": "bytes"
        }
      ],
      "name": "upgradeToAndCall",
      "outputs": [],
      "stateMutability": "payable",
      "type": "function"
    },
    {
      "inputs": [],
      "name": "usdPlusMarket",
      "outputs": [
        {
          "internalType": "contract IUSDPlusMarket",
          "name": "",
          "type": "address"
        }
      ],
      "stateMutability": "view",
      "type": "function"
    },
    {
      "inputs": [],
      "name": "usdc",
      "outputs": [
        {
          "internalType": "contract IERC20",
          "name": "",
          "type": "address"
        }
      ],
      "stateMutability": "view",
      "type": "function"
    },
    {
      "inputs": [],
      "name": "wUSDPlus",
      "outputs": [
        {
          "internalType": "contract IWrappedUsdPlusToken",
          "name": "",
          "type": "address"
        }
      ],
      "stateMutability": "view",
      "type": "function"
    }
  ],
  "bytecode": "0x60a06040523060805234801561001457600080fd5b50608051611e6761004c6000396000818161073f0152818161077f015281816108340152818161087401526109030152611e676000f3fe60806040526004361061019c5760003560e01c806363bd1d4a116100ec578063a440b21a1161008a578063d547741f11610064578063d547741f1461046d578063de95fe681461048d578063ec87621c146104ae578063f3869e8d146104e257600080fd5b8063a440b21a1461041f578063ce1aa76b1461043f578063cecbbc071461045657600080fd5b80638a0025c7116100c65780638a0025c7146103a85780638ac8f006146103c957806391d14854146103ea578063a217fddf1461040a57600080fd5b806363bd1d4a146103675780636d8ebaa81461037c5780638456cb591461039357600080fd5b80633e413bee116101595780634f1ef286116101335780634f1ef2861461030557806352d1902d146103185780635c975abb1461032d578063620b75df1461034657600080fd5b80633e413bee146102965780633f4ba83a146102cf5780634091b983146102e457600080fd5b806301ffc9a7146101a15780631460e390146101d6578063248a9ca3146101f85780632f2ff15d1461023657806336568abe146102565780633659cfe614610276575b600080fd5b3480156101ad57600080fd5b506101c16101bc366004611944565b610502565b60405190151581526020015b60405180910390f35b3480156101e257600080fd5b506101f66101f136600461198a565b610539565b005b34801561020457600080fd5b50610228610213366004611a09565b60009081526065602052604090206001015490565b6040519081526020016101cd565b34801561024257600080fd5b506101f6610251366004611a22565b61068b565b34801561026257600080fd5b506101f6610271366004611a22565b6106b6565b34801561028257600080fd5b506101f6610291366004611a4e565b610734565b3480156102a257600080fd5b50610162546102b7906001600160a01b031681565b6040516001600160a01b0390911681526020016101cd565b3480156102db57600080fd5b506101f6610814565b3480156102f057600080fd5b50610160546102b7906001600160a01b031681565b6101f6610313366004611a7f565b610829565b34801561032457600080fd5b506102286108f6565b34801561033957600080fd5b5061012d5460ff166101c1565b34801561035257600080fd5b50610161546102b7906001600160a01b031681565b34801561037357600080fd5b506101f66109a9565b34801561038857600080fd5b506102286101655481565b34801561039f57600080fd5b506101f66109f8565b3480156103b457600080fd5b50610163546102b7906001600160a01b031681565b3480156103d557600080fd5b50610164546102b7906001600160a01b031681565b3480156103f657600080fd5b506101c1610405366004611a22565b610a0b565b34801561041657600080fd5b50610228600081565b34801561042b57600080fd5b506101f661043a366004611a4e565b610a36565b34801561044b57600080fd5b506102286101665481565b34801561046257600080fd5b506102286101675481565b34801561047957600080fd5b506101f6610488366004611a22565b610aec565b34801561049957600080fd5b5061015f546102b7906001600160a01b031681565b3480156104ba57600080fd5b506102287f241ecf16d79d0f8dbfb92cbc07fe17840425976cf0667f022fe9877caa831b0881565b3480156104ee57600080fd5b506101f66104fd366004611b41565b610b12565b60006001600160e01b03198216637965db0b60e01b148061053357506301ffc9a760e01b6001600160e01b03198316145b92915050565b600054610100900460ff166105545760005460ff1615610558565b303b155b6105c05760405162461bcd60e51b815260206004820152602e60248201527f496e697469616c697a61626c653a20636f6e747261637420697320616c72656160448201526d191e481a5b9a5d1a585b1a5e995960921b60648201526084015b60405180910390fd5b600054610100900460ff161580156105e2576000805461ffff19166101011790555b6105ea610c7a565b6105f2610ce6565b61016080546001600160a01b03199081166001600160a01b038b81169190911790925561015f805482168a841617905561016180548216898416179055610162805482168884161790556101638054821687841617905561016480549091169185169190911790556101658290556201518061016655610384610167558015610681576000805461ff00191690555b5050505050505050565b6000828152606560205260409020600101546106a78133610d15565b6106b18383610d79565b505050565b6001600160a01b03811633146107265760405162461bcd60e51b815260206004820152602f60248201527f416363657373436f6e74726f6c3a2063616e206f6e6c792072656e6f756e636560448201526e103937b632b9903337b91039b2b63360891b60648201526084016105b7565b6107308282610dff565b5050565b306001600160a01b037f000000000000000000000000000000000000000000000000000000000000000016141561077d5760405162461bcd60e51b81526004016105b790611b6d565b7f00000000000000000000000000000000000000000000000000000000000000006001600160a01b03166107c6600080516020611deb833981519152546001600160a01b031690565b6001600160a01b0316146107ec5760405162461bcd60e51b81526004016105b790611bb9565b6107f581610e66565b6040805160008082526020820190925261081191839190610e71565b50565b61081f600033610d15565b610827610feb565b565b306001600160a01b037f00000000000000000000000000000000000000000000000000000000000000001614156108725760405162461bcd60e51b81526004016105b790611b6d565b7f00000000000000000000000000000000000000000000000000000000000000006001600160a01b03166108bb600080516020611deb833981519152546001600160a01b031690565b6001600160a01b0316146108e15760405162461bcd60e51b81526004016105b790611bb9565b6108ea82610e66565b61073082826001610e71565b6000306001600160a01b037f000000000000000000000000000000000000000000000000000000000000000016146109965760405162461bcd60e51b815260206004820152603860248201527f555550535570677261646561626c653a206d757374206e6f742062652063616c60448201527f6c6564207468726f7567682064656c656761746563616c6c000000000000000060648201526084016105b7565b50600080516020611deb83398151915290565b61012d5460ff16156109f05760405162461bcd60e51b815260206004820152601060248201526f14185d5cd8589b194e881c185d5cd95960821b60448201526064016105b7565b610827611080565b610a03600033610d15565b61082761148b565b60009182526065602090815260408084206001600160a01b0393909316845291905290205460ff1690565b610a41600033610d15565b6001600160a01b038116610a975760405162461bcd60e51b815260206004820152601860248201527f5a65726f2061646472657373206e6f7420616c6c6f776564000000000000000060448201526064016105b7565b61016180546001600160a01b0319166001600160a01b0383169081179091556040519081527ff7b449fcd5cfb7379dcd34cb69428dd9f882033b15be33d83b42d91daa28eeb79060200160405180910390a150565b600082815260656020526040902060010154610b088133610d15565b6106b18383610dff565b610b1d600033610d15565b82610b6a5760405162461bcd60e51b815260206004820181905260248201527f5a65726f205f6e6578745061796f757454696d65206e6f7420616c6c6f77656460448201526064016105b7565b81610bb75760405162461bcd60e51b815260206004820152601e60248201527f5a65726f205f7061796f7574506572696f64206e6f7420616c6c6f776564000060448201526064016105b7565b808311610c225760405162461bcd60e51b815260206004820152603360248201527f5f6e6578745061796f757454696d652073686f7564206265206d6f7265207468604482015272616e205f7061796f757454696d6552616e676560681b60648201526084016105b7565b61016583905561016682905561016781905560408051848152602081018490529081018290527f182705f356ea3bbbd12c7b4761586a554d391a7703345f81166bbe3f946444999060600160405180910390a1505050565b600054610100900460ff16610ca15760405162461bcd60e51b81526004016105b790611c05565b610ca9611508565b610cb1611508565b610cbc60003361152f565b6108277f241ecf16d79d0f8dbfb92cbc07fe17840425976cf0667f022fe9877caa831b083361152f565b600054610100900460ff16610d0d5760405162461bcd60e51b81526004016105b790611c05565b610827611539565b610d1f8282610a0b565b61073057610d37816001600160a01b0316601461156d565b610d4283602061156d565b604051602001610d53929190611c7c565b60408051601f198184030181529082905262461bcd60e51b82526105b791600401611cf1565b610d838282610a0b565b6107305760008281526065602090815260408083206001600160a01b03851684529091529020805460ff19166001179055610dbb3390565b6001600160a01b0316816001600160a01b0316837f2f8788117e7eff1d82e926ec794901d17c78024a50270940304540a733656f0d60405160405180910390a45050565b610e098282610a0b565b156107305760008281526065602090815260408083206001600160a01b0385168085529252808320805460ff1916905551339285917ff6391f5c32d9c69d2a47ea670b442974b53935d1edc7fd64eb21e047a839171b9190a45050565b610811600033610d15565b7f4910fdfa16fed3260ed0e7147f7cc6da11a60208b5b9406d12a635614ffd91435460ff1615610ea4576106b183611710565b826001600160a01b03166352d1902d6040518163ffffffff1660e01b815260040160206040518083038186803b158015610edd57600080fd5b505afa925050508015610f0d575060408051601f3d908101601f19168201909252610f0a91810190611d24565b60015b610f705760405162461bcd60e51b815260206004820152602e60248201527f45524331393637557067726164653a206e657720696d706c656d656e7461746960448201526d6f6e206973206e6f74205555505360901b60648201526084016105b7565b600080516020611deb8339815191528114610fdf5760405162461bcd60e51b815260206004820152602960248201527f45524331393637557067726164653a20756e737570706f727465642070726f786044820152681a58589b195555525160ba1b60648201526084016105b7565b506106b18383836117ac565b61012d5460ff166110355760405162461bcd60e51b815260206004820152601460248201527314185d5cd8589b194e881b9bdd081c185d5cd95960621b60448201526064016105b7565b61012d805460ff191690557f5db9ee0a495bf2e6ff9c91a7834c1ba4fdd244a5e8aa4e537bd38aeae4b073aa335b6040516001600160a01b03909116815260200160405180910390a1565b61016554610167546110929042611d53565b101561109a57565b61016160009054906101000a90046001600160a01b03166001600160a01b031663c6bbf4cb6040518163ffffffff1660e01b8152600401600060405180830381600087803b1580156110eb57600080fd5b505af11580156110ff573d6000803e3d6000fd5b5050610162546040516370a0823160e01b8152306004820152600093506001600160a01b0390911691506370a082319060240160206040518083038186803b15801561114a57600080fd5b505afa15801561115e573d6000803e3d6000fd5b505050506040513d601f19601f820116820180604052508101906111829190611d24565b6101645461016254604051632e0a8aaf60e11b81526001600160a01b039182166004820152602481018490523060448201529293501690635c15155e90606401602060405180830381600087803b1580156111dc57600080fd5b505af11580156111f0573d6000803e3d6000fd5b505050506040513d601f19601f820116820180604052508101906112149190611d24565b50610163546040516370a0823160e01b81523060048201526000916001600160a01b0316906370a082319060240160206040518083038186803b15801561125a57600080fd5b505afa15801561126e573d6000803e3d6000fd5b505050506040513d601f19601f820116820180604052508101906112929190611d24565b61015f54610163546040516309feb8f560e41b81526001600160a01b039182166004820152602481018490529293501690639feb8f5090604401600060405180830381600087803b1580156112e657600080fd5b505af11580156112fa573d6000803e3d6000fd5b5050505061016060009054906101000a90046001600160a01b03166001600160a01b031663af14052c6040518163ffffffff1660e01b8152600401600060405180830381600087803b15801561134f57600080fd5b505af1158015611363573d6000803e3d6000fd5b5050610163546040516303d1689d60e11b8152600481018590527f22427047e1a674a9aff59700a2c8d00ea96e017ddf9236690bdedf1f21f28d9d93506001600160a01b0390911691506307a2d13a9060240160206040518083038186803b1580156113ce57600080fd5b505afa1580156113e2573d6000803e3d6000fd5b505050506040513d601f19601f820116820180604052508101906114069190611d24565b60405190815260200160405180910390a15b610167546101655461142a9190611d6b565b421061144b5761016654610165546114429190611d53565b61016555611418565b7f6654b7187a0560c4c326844142156c2adf52738d0a615487e0e2a5cd9823c2c46101655460405161147f91815260200190565b60405180910390a15050565b61012d5460ff16156114d25760405162461bcd60e51b815260206004820152601060248201526f14185d5cd8589b194e881c185d5cd95960821b60448201526064016105b7565b61012d805460ff191660011790557f62e78cea01bee320cd4e420270b5ea74000d11b0c9f74754ebdbfc544b05a2586110633390565b600054610100900460ff166108275760405162461bcd60e51b81526004016105b790611c05565b6107308282610d79565b600054610100900460ff166115605760405162461bcd60e51b81526004016105b790611c05565b61012d805460ff19169055565b6060600061157c836002611d82565b611587906002611d53565b67ffffffffffffffff81111561159f5761159f611a69565b6040519080825280601f01601f1916602001820160405280156115c9576020820181803683370190505b509050600360fc1b816000815181106115e4576115e4611da1565b60200101906001600160f81b031916908160001a905350600f60fb1b8160018151811061161357611613611da1565b60200101906001600160f81b031916908160001a9053506000611637846002611d82565b611642906001611d53565b90505b60018111156116ba576f181899199a1a9b1b9c1cb0b131b232b360811b85600f166010811061167657611676611da1565b1a60f81b82828151811061168c5761168c611da1565b60200101906001600160f81b031916908160001a90535060049490941c936116b381611db7565b9050611645565b5083156117095760405162461bcd60e51b815260206004820181905260248201527f537472696e67733a20686578206c656e67746820696e73756666696369656e7460448201526064016105b7565b9392505050565b6001600160a01b0381163b61177d5760405162461bcd60e51b815260206004820152602d60248201527f455243313936373a206e657720696d706c656d656e746174696f6e206973206e60448201526c1bdd08184818dbdb9d1c9858dd609a1b60648201526084016105b7565b600080516020611deb83398151915280546001600160a01b0319166001600160a01b0392909216919091179055565b6117b5836117d7565b6000825111806117c25750805b156106b1576117d18383611817565b50505050565b6117e081611710565b6040516001600160a01b038216907fbc7cd75a20ee27fd9adebab32041f755214dbc6bffa90cc0225b39da2e5c2d3b90600090a250565b60606001600160a01b0383163b61187f5760405162461bcd60e51b815260206004820152602660248201527f416464726573733a2064656c65676174652063616c6c20746f206e6f6e2d636f6044820152651b9d1c9858dd60d21b60648201526084016105b7565b600080846001600160a01b03168460405161189a9190611dce565b600060405180830381855af49150503d80600081146118d5576040519150601f19603f3d011682016040523d82523d6000602084013e6118da565b606091505b50915091506119028282604051806060016040528060278152602001611e0b6027913961190b565b95945050505050565b6060831561191a575081611709565b82511561192a5782518084602001fd5b8160405162461bcd60e51b81526004016105b79190611cf1565b60006020828403121561195657600080fd5b81356001600160e01b03198116811461170957600080fd5b80356001600160a01b038116811461198557600080fd5b919050565b600080600080600080600060e0888a0312156119a557600080fd5b6119ae8861196e565b96506119bc6020890161196e565b95506119ca6040890161196e565b94506119d86060890161196e565b93506119e66080890161196e565b92506119f460a0890161196e565b915060c0880135905092959891949750929550565b600060208284031215611a1b57600080fd5b5035919050565b60008060408385031215611a3557600080fd5b82359150611a456020840161196e565b90509250929050565b600060208284031215611a6057600080fd5b6117098261196e565b634e487b7160e01b600052604160045260246000fd5b60008060408385031215611a9257600080fd5b611a9b8361196e565b9150602083013567ffffffffffffffff80821115611ab857600080fd5b818501915085601f830112611acc57600080fd5b813581811115611ade57611ade611a69565b604051601f8201601f19908116603f01168101908382118183101715611b0657611b06611a69565b81604052828152886020848701011115611b1f57600080fd5b8260208601602083013760006020848301015280955050505050509250929050565b600080600060608486031215611b5657600080fd5b505081359360208301359350604090920135919050565b6020808252602c908201527f46756e6374696f6e206d7573742062652063616c6c6564207468726f7567682060408201526b19195b1959d85d1958d85b1b60a21b606082015260800190565b6020808252602c908201527f46756e6374696f6e206d7573742062652063616c6c6564207468726f7567682060408201526b6163746976652070726f787960a01b606082015260800190565b6020808252602b908201527f496e697469616c697a61626c653a20636f6e7472616374206973206e6f74206960408201526a6e697469616c697a696e6760a81b606082015260800190565b60005b83811015611c6b578181015183820152602001611c53565b838111156117d15750506000910152565b7f416363657373436f6e74726f6c3a206163636f756e7420000000000000000000815260008351611cb4816017850160208801611c50565b7001034b99036b4b9b9b4b733903937b6329607d1b6017918401918201528351611ce5816028840160208801611c50565b01602801949350505050565b6020815260008251806020840152611d10816040850160208701611c50565b601f01601f19169190910160400192915050565b600060208284031215611d3657600080fd5b5051919050565b634e487b7160e01b600052601160045260246000fd5b60008219821115611d6657611d66611d3d565b500190565b600082821015611d7d57611d7d611d3d565b500390565b6000816000190483118215151615611d9c57611d9c611d3d565b500290565b634e487b7160e01b600052603260045260246000fd5b600081611dc657611dc6611d3d565b506000190190565b60008251611de0818460208701611c50565b919091019291505056fe360894a13ba1a3210667c828492db98dca3e2076cc3735a920a3ca505d382bbc416464726573733a206c6f772d6c6576656c2064656c65676174652063616c6c206661696c6564a2646970667358221220df4bd97195a17aa5fb47c8e095e50991e05f079f7719ebacd0417b47d45f07de64736f6c63430008090033",
  "linkReferences": {},
  "deployedLinkReferences": {}
}